:10FC0000112424B614BE80E07AD021FEF9C18EE022
:10FC100076D0E8ECF0E0AFE7BFEF4A99FECF9096E0
:10FC20004A9BFDCFB4831197F1F7B2E0B083B8E1FE
:10FC3000B18356D0C82F823551F467D0E0E0FCEF95
:10FC4000FA95A89583E07CD03097D1F73FC08D7F9F
:10FC5000F1F450D0D82FA0E0B1E042D08D93DA1368
:10FC6000FCCF53D0C1110FC0A0E0B1E0F999FECF95
:10FC70001FBAF2BDE1BD8D9180BDFA9AF99A319615
:10FC8000DA13F4CF23C0A0E0B1E049D01FC0C330E5
:10FC900041F430D0C82F39D085911BD0C150E1F745
:10FCA00015C0C13071F426D0C82F2FD0F999FECFDE
:10FCB000F2BDE1BDF89A80B50CD03196C150B1F7D4
:10FCC00005C0C13511F488E01AD01FD080E801D0FA
:10FCD000B0CF9091C80095FFFCCF8093CE000895DF
:10FCE0008091C80087FFFCCF84FD12C0A895809149
:10FCF000CE000895F5DFE82FF3DFF82FF1CF98E17C
:10FD000090936000809360000895EADF803219F0DC
:10FD100088E0F5DFFFCF80EADCCFFB01DC016A2F52
:10FD20009F01FC3F90F483E00BD081E00D901D908B
:10FD300007D03296A613FACFF90185E001D081E110
:0EFD400087BFE89507B600FCFDCF112408959B
:06FFFA0004008ECEE13F81
:040000030000FC00FD
:00000001FF
