:10FE0000112424B614BE80E07ED021FE2FC18EE0E6
:10FE10007AD0E8ECF0E0AFE7BFEF4A99FECF9096DA
:10FE20004A9BFDCFB4831197F1F7B2E0B083B8E1FC
:10FE3000B1835AD0C82F8235A9F46BD0E0E0FDEF32
:10FE4000A8959F017E2F65916F3F11F4E713FBCFBB
:10FE5000F90119F083E094D092D0F15088F780E84E
:10FE60003CD0E7CF8D7FD9F449D0D82FA0E0B1E0C6
:10FE70003BD08D93DA13FCCFA0E0B1E04AD0C111A2
:10FE80000CC0F2BDE1BD8D9180BDFA9AF99A319610
:10FE9000F999FECFD150A9F7E2CF45D0E0CFC330DA
:10FEA00041F42CD0C82F35D0859117D0C150E1F73F
:10FEB000D6CFC13061F422D0C82F2BD0F2BDE1BD26
:10FEC000F89A80B50AD03196C150C1F7C8CFC13574
:10FED00011F488E018D01DD0C2CF9091C80095FFD2
:10FEE000FCCF8093CE0008958091C80087FFFCCF9F
:10FEF00084FD12C0A8958091CE000895F5DFE82F0B
:10FF0000F3DFF82FF1CF98E19093600080936000C9
:10FF10000895EADF803219F088E0F5DFFFCF80EA4C
:10FF2000DCCFFB01DC01E0707A2FFE3F70F53096EC
:10FF300029F48FEF8D938EEC8C93119790E045917F
:10FF40005D91451391605F3F09F092604523451331
:10FF50009460A713F4CFF150BA9590FF16C092FFAA
:10FF600004C083E00DD091FF0AC081E00D901D9088
:10FF700007D03296A713FACFF15085E001D081E186
:0EFF800087BFE89517B610FCFDCF1124089539
:06FFFA00021B92CFE7405C
:040000030000FE00FB
:00000001FF
