:103E800011248FE594E09EBF8DBF24B614BE80E060
:103E90006AD021FEDDC08EE066D0AFE7BFEF80992B
:103EA000FECF9096809BFDCFB9B91197F1F782E0D4
:103EB0008BB988E18AB94AD0C82F8D7F09F54ED0D9
:103EC000D82F182F80E6E82EF12C40D0D7018D9303
:103ED0007D011150D1F74BD0C1110EC0A0E6B0E06A
:103EE000E199FECFFFBBEEBB8D918DBBE29AE19ACB
:103EF0003196D150A9F723C0A0E6B0E042D01FC050
:103F0000C33041F42BD0C82F32D085911BD0C15083
:103F1000E1F715C0C13071F421D0C82F28D0E19944
:103F2000FECFFFBBEEBBE09A8DB30CD03196C150F3
:103F3000B1F705C0C13511F488E015D018D082E37F
:103F400001D0B9CF5D9BFECF8CB908958BB187FFAF
:103F5000FDCF84FD0FC0A8958CB10895F7DFE82F41
:103F6000F5DFF82FF3CF98E191BD81BD0895EEDF25
:103F7000803219F088E0F7DFFFCF80E2E3CFFB016A
:103F8000DC0160E86A0F9F01E0388EE3F807C8F4AF
:103F900083E012D0309629F48FE38D938FEC8C93CD
:103FA000119781E00D901D9007D03296A613FACF9D
:103FB000F90185E001D081E187BFE89507B600FCF3
:063FC000FDCF112408955D
:063FFA000314C0CFE63FF6
:0400000300003E803B
:00000001FF
