:020000021000EC
:10FD00001124C4B72C2E14BE80E0DBD0C1FD4EC040
:10FD1000C3FF4BC080E585B990EB94B9552C772C87
:10FD20008CBDE0E0F0E0CDEFD1E0662C83E0A8D020
:10FD30008BB7A6D08F2FA4D08E2FA2D000E011E0D9
:10FD400080E09ED0D8018D938D010115B2E01B0794
:10FD5000B9F7552C8BB7811109C0309739F48091D0
:10FD60000101843919F0807F803CD1F4BCD0CF01EF
:10FD70009395FC01892B19F48BB78F5F8BBF21976B
:10FD8000A1F6662C86E07CD0552C662C04E080E23F
:10FD900077D080E00150E1F7552C8EE092D0FFCF74
:10FDA0001CBC14B815B8992C882C60C18EE089D081
:10FDB000E0ECF0E0AFE7BFEF4899FECF9096489BAC
:10FDC000FDCFB4831197F1F7B2E0B083B8E1B1830E
:10FDD00011E063D0C82F823599F479D0E0E0FDEFCF
:10FDE0001BBF309719F48BB781508BBFFA95A8953C
:10FDF00083E098D03097A9F78BB78111F2CF3DC03F
:10FE00008D7FE1F457D0D82FA0E0B1E046D08D939C
:10FE1000DA13FCCF5CD0C1110FC0A0E0B1E0F999BA
:10FE2000FECF1FBAF2BDE1BD8D9180BDFA9AF99A5D
:10FE30003196DA13F4CF21C056D01FC0C33041F43D
:10FE400039D0C82F44D0879121D0C150E1F715C0D7
:10FE5000C13071F42FD0C82F3AD0F999FECFF2BD3E
:10FE6000E1BDF89A80B512D03196C150B1F705C006
:10FE7000C13511F488E025D02AD08DE807D0A9CF6C
:10FE80008EBD0DB407FEFDCF8EB508959091C000D4
:10FE900095FFFCCF8093C6000895002CCC2C809158
:10FEA000C00087FFFCCF84FD15C0A8958091C600D7
:10FEB000112C0895F2DFE82FF0DFF82FEEDF8BBF73
:10FEC000ECCF98E190936000809360000895E5DFA7
:10FED000803219F088E0F5DFFFCF80EAD7CF6BBF23
:10FEE000FA01DC0102C0A0E0B1E06A2F9F01FD3FF2
:10FEF0009BB781E09807D8F483E014D0903039F4B0
:10FF0000309629F48FE78D938EEC8C93119781E0D6
:10FF10000D901D9007D03296A613FACFF90185E017
:10FF200001D081E187BFE89507B600FCFDCF112421
:02FF3000089532
:06FFFA00031B67CFF73F77
:040000031000FD00EC
:00000001FF
