:103E8000112424B614BE80E052D021FEEFC08EE093
:103E90004ED0E8ECF0E0AFE7BFEF4A99FECF909646
:103EA0004A9BFDCFB4831197F1F7B2E0B083B8E13C
:103EB000B1832BD0823069F435D0382FA0E0B1E047
:103EC00024D08D933A13FCCF38D0A0E0B1E03FD09E
:103ED00012C0833041F426D0C82F2FD085910ED048
:103EE000C150E1F708C0823008F42AC0813511F4CE
:103EF00088E01DD022D08DE501D0DBCF9091C800A5
:103F000095FFFCCF8093CE000895289A209A809147
:103F1000C80087FFFCCF84FD13C0A8958091CE0018
:103F200028980895F2DFE82FF0DFF82FEECF98E120
:103F300090936000809360000895E7DF803219F06D
:103F400088E0F5DFFFCF80E2D9CFFB01DC0160E83C
:103F50006A0F9F01E0388EE3F807C8F483E012D0BF
:103F6000309629F48FE38D938FEC8C93119781E039
:103F70000D901D9007D03296A613FACFF90185E077
:103F800001D081E187BFE89507B600FCFDCF112481
:023F9000089592
:063FFA00031BA6CFA63F49
:0400000300003E803B
:00000001FF
