:101E000001C0ADC01F92CDB7DEB711248FE592E0BF
:101E10009EBF8DBF84B714BE982F9D7009F0CDD0A2
:101E200085E08EBD82E08BB988E18AB986E880BD05
:101E300085E189B98EE0AED0B89A24E08CE39BEFBF
:101E400054E041E09DBD8CBD58BF08B602FEFDCFF9
:101E500038B3342738BBA8952150A1F7A12CB12C59
:101E600092D0813479F48FD0898398D08981823857
:101E700011F482E005C0813811F486E001C083E0EE
:101E80007ED06AC0823411F484E103C0853419F431
:101E900085E08CD061C0853541F475D0A82E73D013
:101EA000B12CB82AAA0CBB1C56C0863521F484E09C
:101EB0007DD080E0E5CF843691F565D064D0D82E12
:101EC00062D0F82E00E610E080E6D80E5CD0F80173
:101ED00081938F01DE12FACF61D0F5E4FF1201C0C9
:101EE000FFCF40E050E063E0C50139D0750100E666
:101EF00010E0F80140810E5F1F4F3196808150E065
:101F0000582B61E0C7012BD0F2E0EF0EF11CD0128C
:101F1000F0CF40E050E065E0C50121D01DC084371E
:101F200069F431D030D0F82E2ED038D08501F801A8
:101F300085918F0124D0FA94D1F70EC0853739F4FA
:101F40002DD08EE11CD083E91AD088E099CF81355D
:101F500011F488E01FD022D080E111D081CFFC01A4
:101F60000A0167BFE895112407B600FCFDCF667033
:101F700029F0452B19F481E187BFE89508955D9B11
:101F8000FECF8CB908955F9BFECF5C9901C0A895E8
:101F90008CB1089598E191BD81BD0895F4DF803240
:101FA00019F088E0F7DFFFCF84E1E9CFCF93C82FA6
:101FB000EADFC150E9F7CF91F1CF282E80E0EADFC8
:061FC000E0E0FF27099498
:021FFE000206D9
:0400000300001E00DB
:00000001FF
