:020000021000EC
:10FE0000112424B614BE80E051D021FE2FC18EE013
:10FE10004DD0E8ECF0E0AFE7BFEF4A99FECF909607
:10FE20004A9BFDCFB4831197F1F7B2E0B083B8E1FC
:10FE3000B1832BD0823069F432D0382FA0E0B1E00A
:10FE400024D08D933A13FCCF37D0A0E0B1E03FD05F
:10FE500012C0833041F423D0C82F2ED087910ED00A
:10FE6000C150E1F708C0823008F429C0813511F48F
:10FE700088E01CD021D08EE801D0DBCF9091C80063
:10FE800095FFFCCF8093CE0008958091C80087FF36
:10FE9000FCCF84FD14C0A8958091CE000895F5DFB5
:10FEA000E82FF3DFF82FF1DF8BBFEFCF98E19093CE
:10FEB0006000809360000895E8DF803219F088E0E8
:10FEC000F5DFFFCF80E2DACF6BBFFA01DC016A2FEA
:10FED0009F01FE3F9BB781E09807D8F483E014D0E0
:10FEE000903039F4309629F48FEF8D938EEC8C930B
:10FEF000119781E00D901D9007D03296A613FACF8E
:10FF0000F90185E001D081E187BFE89507B600FCE3
:06FF1000FDCF112408954D
:06FFFA00021B65CFA63FCB
:040000031000FE00EB
:00000001FF
