:020000021000EC
:10FF0000112424B614BE80E052D021FEAFC08EE092
:10FF10004ED0E8ECF0E0AFE7BFEF4A99FECF909605
:10FF20004A9BFDCFB4831197F1F7B2E0B083B8E1FB
:10FF3000B18324D0823069F42ED0A0E0B1E01ED08D
:10FF40008D93A030E1F7B1502DD03AD08EE80FD08C
:10FF5000F0CF833041F41FD0C82F24D0879107D031
:10FF6000C150E1F7F3CF8230F0F31CD0EFCF909186
:10FF7000C80095FFFCCF8093CE0008952F9A279A52
:10FF80008091C80087FFFCCF84FDFFCFA8958091AA
:10FF9000CE002F980895F2DFE82FF0DFF82FEEDF84
:10FFA0008BBFECCFEBDF8032F9F780E2E0CF98E156
:10FFB000909360008093600008956BBFFA01DC01AC
:10FFC000E0707A2F6BB7FF3F81E0680790F483E021
:10FFD0000BD081E00D901D9007D03296A713FACF79
:10FFE000F15085E001D081E187BFE89517B610FC9C
:06FFF000FDCF112408956D
:06FFFA00011BDECF844074
:040000031000FF00EA
:00000001FF
