:020000021000EC
:10FC000002C0F3C03BC1112484B790E89093610017
:10FC100010926100882369F0982F9A70923049F011
:10FC200081FF02C097EF94BF282E80E001D10C9491
:10FC3000000085E08093810092E09093C00098E1FD
:10FC40009093C1008093C40086E08093C2008EE050
:10FC5000EFD0259A84E020E93FEF91E030938500D2
:10FC60002093840096BBB09BFECF1D9AA89540912F
:10FC7000C00047FD02C0815089F7CED0813479F4AD
:10FC8000CBD0C82FDBD0C23811F480E004C088E0AC
:10FC9000C13809F083E0B9D080E1B7D0EECF82342B
:10FCA00019F484E1D3D0F8CF853411F485E0FACF8C
:10FCB000853581F4B1D0E82EAFD0F82E87FF07C08C
:10FCC0008BB781608BBFEE0CFF1CB8D0E5CF8BB734
:10FCD0008E7FF8CF863579F49FD08D3451F49CD047
:10FCE000CBB79AD0C170880F8C2B8BBF81E0AED080
:10FCF000CCCF83E0FCCF843609F046C08DD0C82F2E
:10FD0000D0E0DC2FCC2788D0C82B86D0D82E5E013F
:10FD10008EEFB81A00E012E04801EFEF8E1A9E0A4B
:10FD20007BD0F801808384018A149B04A9F786D0D4
:10FD3000F5E410E000E0DF1609F150E040E063E098
:10FD4000C70153D08701C12C92E0D92EF601419111
:10FD500051916F0161E0C80148D00E5F1F4F22979B
:10FD6000A9F750E040E065E0C7013FD095CF608142
:10FD7000C8018E0D9F1D02D10F5F1F4FF801FE5F5E
:10FD8000C017D107A1F788CF843701F545D0C82F18
:10FD9000D0E0DC2FCC2740D0C82B3ED0D82E4ED080
:10FDA0008701F5E4DF120BC0CE0DDF1DC801DED0E8
:10FDB0002CD00F5F1F4FC017D107C1F76DCFF801CF
:10FDC00087918F0122D02197D1F766CF853739F4FB
:10FDD00035D08EE11AD087E918D084E05CCF813528
:10FDE00009F073CF88E024D070CFFC010A0167BF0F
:10FDF000E895112407B600FCFDCF667029F0452B6D
:10FE000019F481E187BFE89508959091C00095FFAE
:10FE1000FCCF8093C60008958091C00087FFFCCF7F
:10FE20008091C00084FD01C0A8958091C60008950E
:10FE3000E0E6F0E098E1908380830895EDDF803282
:10FE400019F088E0F5DFFFCF84E1DFCFCF93C82F33
:10FE5000E3DFC150E9F7CF91F1CFCF92DF92EF927C
:10FE6000FF92DC01CB01642F6D01EE24FF24CBBE99
:10FE7000A901FF90EF90DF90CF90B7CF2F923F92E4
:10FE80004F925F926F927F928F929F92AF92BF92AA
:10FE9000CF92DF92EF92FF920F931F93CF93DF9356
:10FEA00000D01F92CDB7DEB71801E9826B017C014B
:10FEB00010E000E029013A014C185D086E087F0847
:10FEC00046015701840C951CA61CB71C021513058E
:10FED00031F489818823A1F188E0AADFFFCF30E0E7
:10FEE00020E043E0C701B601B8DF80E890E09B83E3
:10FEF0008A83ABBEF40127913691C501B401641920
:10FF000075098609970941E0A8DF8A819B810197DD
:10FF10009B838A8392E0890E911CA11CB11C8A816B
:10FF20009B81892B31F730E020E045E0C701B60125
:10FF300094DF9FEFD91AE90AF90A0F5F1F4FC0CF6C
:10FF40000F900F900F90DF91CF911F910F91FF9025
:10FF5000EF90DF90CF90BF90AF909F908F907F9069
:10FF60006F905F904F903F902F900895F999FECF3A
:10FF700092BD81BDF89A992780B50895262FF999E9
:10FF8000FECF1FBA92BD81BD20BD0FB6F894FA9A7C
:08FF9000F99A0FBE01960895D5
:02FFFE000008F9
:040000031000FC00ED
:00000001FF
