:103E800011248FE594E09EBF8DBF24B614BE80E060
:103E90007AD021FEDDC08EE076D0AFE7BFEF80990B
:103EA000FECF9096809BFDCFB9B91197F1F782E0D4
:103EB0008BB988E18AB957D0C82F823559F468D0B8
:103EC000E0E8FEE3E058F109A89583E086D030975A
:103ED000C9F742C08D7F09F551D0D82F182F80E641
:103EE000E82EF12C40D0D7018D937D011150D1F7F0
:103EF0004FD0C1110EC0A0E6B0E0E199FECFFFBBEC
:103F0000EEBB8D918DBBE29AE19A3196D150A9F723
:103F100023C0A0E6B0E046D01FC0C33041F42ED08D
:103F2000C82F36D085911BD0C150E1F715C0C130E4
:103F300071F424D0C82F2CD0E199FECFFFBBEEBB8B
:103F4000E09A8DB30CD03196C150B1F705C0C135A0
:103F500011F488E018D01CD081E301D0ACCF5D9B78
:103F6000FECF8CB90895002CCC2C8BB187FFFDCFF0
:103F700084FD11C0A8958CB1112C0895F4DFE82FB1
:103F8000F2DFF82FF0CF98E1A89591BD81BD08959B
:103F9000EADF803219F088E0F6DFFFCF80EADFCF7A
:103FA000FB01DC0160E86A0F9F01E0388EE3F8074F
:103FB000C8F483E012D0309629F48FE38D938FEC10
:103FC0008C93119781E00D901D9007D03296A61327
:103FD000FACFF90185E001D081E187BFE89507B606
:083FE00000FCFDCF112408953F
:063FFA000314D1CFE73FE4
:0400000300003E803B
:00000001FF
