:10FE0000112424B614BE80E07DD021FE2FC18EE0E7
:10FE100079D0E0ECF0E0AFE7BFEF4899FECF9096E5
:10FE2000489BFDCFB4831197F1F7B2E0B083B8E1FE
:10FE3000B18356D0C82F823551F46BD0E0E0FEEF8D
:10FE4000FA95A89583E087D03097D1F73FC08D7F92
:10FE5000F1F453D0D82FA0E0B1E042D08D93DA1363
:10FE6000FCCF57D0C1110FC0A0E0B1E0F999FECF8F
:10FE70001FBAF2BDE1BD8D9180BDFA9AF99A319613
:10FE8000DA13F4CF23C0A0E0B1E04DD01FC0C330DF
:10FE900041F433D0C82F3DD085911BD0C150E1F73C
:10FEA00015C0C13071F429D0C82F33D0F999FECFD5
:10FEB000F2BDE1BDF89A80B50CD03196C150B1F7D2
:10FEC00005C0C13511F488E01DD023D081E801D0F0
:10FED000B0CF9091C00095FFFCCF8093C6000895ED
:10FEE000002CCC2C8091C00087FFFCCF84FD14C077
:10FEF000A8958091C600112C0895F2DFE82FF0DF5D
:10FF0000F82FEECF98E1A895909360008093600061
:10FF10000895E6DF803219F088E0F4DFFFCF80EA51
:10FF2000D8CFFB01DC016A2F9F01FE3FC8F483E0BC
:10FF300012D0309629F48FEF8D938EEC8C9311971D
:10FF400081E00D901D9007D03296A613FACFF901EB
:10FF500085E001D081E187BFE89507B600FCFDCFC1
:04FF600011240895CB
:06FFFA00021B92CFE73F5D
:040000030000FE00FB
:00000001FF
