:10FC000002C0DEC019C1112484B790E8909361004E
:10FC100010926100882361F0982F9A70923041F021
:10FC200081FF02C097EF94BF282E80E0ECD0E8C19E
:10FC300085E08093810082E08093C00088E180931A
:10FC4000C10083E38093C40086E08093C2008EE00D
:10FC5000DAD0259A84E020E33CEF91E030938500F0
:10FC60002093840096BBB09BFECF1D9AA89540912F
:10FC7000C00047FD02C0815089F7B9D0813479F4C2
:10FC8000B6D0C82FC6D0C23811F480E004C088E0D6
:10FC9000C13809F083E0A4D080E1A2D0EECF823455
:10FCA00019F484E1BED0F8CF853411F485E0FACFA1
:10FCB000853541F49CD0E82E9AD0F82EEE0CFF1C2E
:10FCC000A8D0EACF863519F484E0ABD0DECF8436F5
:10FCD00009F045C08CD0C82FD0E0DC2FCC2787D0CE
:10FCE000C82B85D0D82E5E01B39400E011E0480106
:10FCF000EFEF8E1A9E0A7BD0F801808384018A146C
:10FD00009B04A9F786D0F5E410E000E0DF1609F1C6
:10FD100050E040E063E0C70153D08701C12CDD24EF
:10FD2000D394F601419151916F0161E0C80148D02F
:10FD30000E5F1F4F2297A9F750E040E065E0C70132
:10FD40003FD0AACF6081C8018E0D9F1DC3D00F5F29
:10FD50001F4FF801F395C017D107A1F79DCF843746
:10FD600001F545D0C82FD0E0DC2FCC2740D0C82BE0
:10FD70003ED0D82E4ED08701F5E4DF120BC0CE0D59
:10FD8000DF1DC8019FD02CD00F5F1F4FC017D107B8
:10FD9000C1F782CFF80185918F0122D02197D1F749
:10FDA0007BCF853739F435D08EE11AD086E918D06B
:10FDB00086E071CF813509F083CF88E024D080CFF1
:10FDC000FC010A0167BFE895112407B600FCFDCFCE
:10FDD000667029F0452B19F481E187BFE8950895F5
:10FDE0009091C00095FFFCCF8093C600089580914C
:10FDF000C00087FFFCCF8091C00084FD01C0A895A2
:10FE00008091C6000895E0E6F0E098E19083808359
:10FE10000895EDDF803219F088E0F5DFFFCF84E14F
:10FE2000DFCFCF93C82FE3DFC150E9F7CF91F1CFF8
:10FE3000CB01642FA901C4CF8F929F92AF92BF9242
:10FE4000CF92DF92EF920F931F93CF93DF93EB014B
:10FE50006901912C812C8016910629F4EE2031F154
:10FE600088E0D1DFFFCF50E040E063E0CE01A8DFC3
:10FE7000B12CA12CF501EC0DFD1D4591549161E0D3
:10FE8000C5018C0F9D1F9CDF82E0A80EB11CA11440
:10FE900081E0B80679F750E040E065E0CE0190DF00
:10FEA0008FEF881A980AD395D394D5CFDF91CF914D
:10FEB0001F910F91EF90DF90CF90BF90AF909F90E8
:10FEC0008F900895F999FECF92BD81BDF89A992738
:10FED00080B50895262FF999FECF92BD81BD20BD32
:0EFEE0000FB6F894FA9AF99A0FBE019608959B
:02FFFE000008F9
:040000030000FC00FD
:00000001FF
