:103E800011248FE594E09EBF8DBF24B614BE80E060
:103E900064D021FEDDC08EE060D0AFE7BFEF809937
:103EA000FECF9096809BFDCFB9B91197F1F782E0D4
:103EB0008BB988E18AB942D0C82F8D7FE9F448D008
:103EC000D82FA0E0B1E03AD08D93DA13FCCFA0E078
:103ED000B1E047D0C1110EC0FFBBEEBB8D918DBBD1
:103EE000E29AE19A3196E199FECFD150A9F782E3A7
:103EF00021D0E1CF40D0FBCFC33041F429D0C82F2F
:103F000030D0859117D0C150E1F7F1CFC13061F4C5
:103F10001FD0C82F26D0FFBBEEBBE09A8DB30AD0CE
:103F20003196C150C1F7E3CFC13511F488E015D007
:103F300018D0DDCF5D9BFECF8CB90895002CCC2C22
:103F40005F9BFECF5C9910C0A8958CB1112C089591
:103F5000F5DFE82FF3DFF82FF1CF98E191BD81BDB8
:103F60000895ECDF803219F088E0F7DFFFCF80E2C0
:103F7000E1CFFB01DC01E07870E87A0F9F01E038C7
:103F80008EE3F80778F5309629F48FE38D938FEC64
:103F90008C93119790E045915D91451391605F3F3F
:103FA00009F09260452345139460A713F4CFF901FB
:103FB000A058B10990FF16C092FF04C083E00DD055
:103FC00091FF0AC081E00D901D9007D03296A71393
:103FD000FACFF90185E001D081E187BFE89517B6F6
:083FE00010FCFDCF112408952F
:063FFA000314BACFE640FB
:0400000300003E803B
:00000001FF
