:10FE0000112424B614BE80E06CD021FE2FC18EE0F8
:10FE100068D0E0ECF0E0AFE7BFEF4899FECF9096F6
:10FE2000489BFDCFB4831197F1F7B2E0B083B8E1FE
:10FE3000B18345D0C82F8D7FE9F44ED0D82FA0E0F4
:10FE4000B1E03DD08D93DA13FCCFA0E0B1E04FD00C
:10FE5000C1110EC0F2BDE1BD8D9180BDFA9AF99A33
:10FE60003196F999FECFD150A9F782E821D0E1CFA0
:10FE700048D0FBCFC33041F42FD0C82F38D0859164
:10FE800017D0C150E1F7F1CFC13061F425D0C82FB0
:10FE90002ED0F2BDE1BDF89A80B50AD03196C1509E
:10FEA000C1F7E3CFC13511F488E01BD020D0DDCFFE
:10FEB0009091C00095FFFCCF8093C6000895002C60
:10FEC000CC2C8091C00087FFFCCF84FD13C0A89587
:10FED0008091C600112C0895F2DFE82FF0DFF82F93
:10FEE000EECF98E190936000809360000895E7DF83
:10FEF000803219F088E0F5DFFFCF80E2D9CFFB0137
:10FF0000DC01E0707A2FFE3F70F5309629F48FEF18
:10FF10008D938EEC8C93119790E045915D914513F4
:10FF200091605F3F09F09260452345139460A713E9
:10FF3000F4CFF150BA9590FF16C092FF04C083E051
:10FF40000DD091FF0AC081E00D901D9007D0329630
:10FF5000A713FACFF15085E001D081E187BFE89582
:0AFF600017B610FCFDCF1124089520
:06FFFA00021B80CFE6406F
:040000030000FE00FB
:00000001FF
