:103E8000112424B614BE80E064D021FEEFC08EE081
:103E900060D0E8ECF0E0AFE7BFEF4A99FECF909634
:103EA0004A9BFDCFB4831197F1F7B2E0B083B8E13C
:103EB000B18340D08235B9F452D0E0E0FEE3A8955A
:103EC0009F0170E87E0F65916F3F11F4E713FBCF00
:103ED000F90119F083E07FD07DD0E058F10978F73F
:103EE0008CE521D0E6CF823059F42ED0A0E0B1E0AD
:103EF00021D08D93A038E1F7A0E031D03AD0F0CFB7
:103F0000833041F421D0C82F2AD085910CD0C150E4
:103F1000E1F7E6CF813521F488E01BD020D0E0CF57
:103F20008230E0F71FC09091C80095FFFCCF8093CE
:103F3000CE0008958091C80087FFFCCF84FD12C099
:103F4000A8958091CE000895F5DFE82FF3DFF82FD4
:103F5000F1CF98E190936000809360000895EADFCC
:103F6000803219F088E0F5DFFFCF80EADCCFFB017B
:103F7000DC01E07870E87A0F9F01E0388EE3F80703
:103F800078F5309629F48FE38D938FEC8C9311970D
:103F900090E045915D91451391605F3F09F092601B
:103FA000452345139460A713F4CFF901A058B10934
:103FB00090FF16C092FF04C083E00DD091FF0AC0AD
:103FC00081E00D901D9007D03296A713FACFF9012A
:103FD00085E001D081E187BFE89517B610FCFDCFE1
:043FE000112408950B
:063FFA00031BB8CFA74035
:0400000300003E803B
:00000001FF
