:103E8000112424B614BE80E069D021FEEFC08EE07C
:103E900065D0E8ECF0E0AFE7BFEF4A99FECF90962F
:103EA0004A9BFDCFB4831197F1F7B2E0B083B8E13C
:103EB000B18345D0C82F8D7FE9F44BD0D82FA0E037
:103EC000B1E03DD08D93DA13FCCFA0E0B1E04CD04F
:103ED000C1110EC0F2BDE1BD8D9180BDFA9AF99A73
:103EE0003196F999FECFD150A9F78DE521D0E1CFD8
:103EF00045D0FBCFC33041F42CD0C82F35D08591AD
:103F000017D0C150E1F7F1CFC13061F422D0C82FF2
:103F10002BD0F2BDE1BDF89A80B50AD03196C150E0
:103F2000C1F7E3CFC13511F488E018D01DD0DDCF43
:103F30009091C80095FFFCCF8093CE0008958091AA
:103F4000C80087FFFCCF84FD12C0A8958091CE00E9
:103F50000895F5DFE82FF3DFF82FF1CF98E1909384
:103F60006000809360000895EADF803219F088E0F5
:103F7000F5DFFFCF80E2DCCFFB01DC01E07870E809
:103F80007A0F9F01E0388EE3F80778F5309629F430
:103F90008FE38D938FEC8C93119790E045915D9119
:103FA000451391605F3F09F092604523451394608B
:103FB000A713F4CFF901A058B10990FF16C092FFE2
:103FC00004C083E00DD091FF0AC081E00D901D90E8
:103FD00007D03296A713FACFF90185E001D081E12D
:0E3FE00087BFE89517B610FCFDCF1124089599
:063FFA00031BBDCFE640F1
:0400000300003E803B
:00000001FF
