:107F000011248FE598E09EBF8DBF24B614BE80E09B
:107F10004DD021FE9DC08EE049D0AFE7BFEF8099E4
:107F2000FECF9096809BFDCFB9B91197F1F782E013
:107F30008BB988E18AB925D0823071F42DD0C0E6A2
:107F4000D0E010E6180F1DD089931C13FCCF29D068
:107F5000A0E6B0E031D00EC0833041F41DD0C82F70
:107F600020D085910AD0C150E1F704C0823008F4D6
:107F7000FFCF17D08BE301D0DECF5D9BFECF8CB956
:107F80000895002CCC2C8BB187FFFDCF84FDFFCF53
:107F9000A8958CB1112C0895F4DFE82FF2DFF82FAB
:107FA000F0CFEFDF8032F9F780E2E7CF98E191BDC3
:107FB00081BD0895FB01DC0160E86A0F9F01FF3776
:107FC000C8F483E012D0309629F48FE78D938FECBC
:107FD0008C93119781E00D901D9007D03296A613D7
:107FE000FACFF90185E001D081E187BFE89507B6B6
:087FF00000FCFDCF11240895EF
:067FFA000214DBCFA63FDC
:0400000300007F007A
:00000001FF
