:020000021000EC
:10FF0000112424B614BE80E054D021FEAFC08EE090
:10FF100050D0E0ECF0E0AFE7BFEF4899FECF90960D
:10FF2000489BFDCFB4831197F1F7B2E0B083B8E1FD
:10FF3000B18327D0823069F430D0382FA0E0B1E00F
:10FF400020D08D933A13FCCF2FD0A0E0B1E03AD06F
:10FF50000EC0833041F421D0C82F26D087910AD01B
:10FF6000C150E1F704C0823008F4FFCF1DD08DE806
:10FF700001D0DFCF9091C00095FFFCCF8093C600E9
:10FF80000895002CCC2C8091C00087FFFCCF84FF0B
:10FF9000A8958091C600112C0895F3DFE82FF1DFBA
:10FFA000F82FEFDF8BBFEDCFECDF8032F9F780E287
:10FFB000E1CF98E1909360008093600008956BBF5B
:10FFC000FA01DC016A2F9F01FF3F9BB781E0980790
:10FFD00090F483E00BD081E00D901D9007D0329615
:10FFE000A613FACFF90185E001D081E187BFE8953A
:0AFFF00007B600FCFDCF11240895B0
:06FFFA00011BE0CFA43F53
:040000031000FF00EA
:00000001FF
