:10FF0000112424B614BE80E050D021FEAFC08EE094
:10FF10004CD0E0ECF0E0AFE7BFEF4899FECF909611
:10FF2000489BFDCFB4831197F1F7B2E0B083B8E1FD
:10FF3000B18327D0823069F42ED0382FA0E0B1E011
:10FF400020D08D933A13FCCF2BD0A0E0B1E035D078
:10FF50000EC0833041F41FD0C82F22D085910AD023
:10FF6000C150E1F704C0823008F4FFCF19D081E816
:10FF700001D0DFCF9091C00095FFFCCF8093C600E9
:10FF800008958091C00087FFFCCF84FDFFCFA89526
:10FF90008091C6000895F5DFE82FF3DFF82FF1CF49
:10FFA000F0DF8032F9F780E2E5CF98E190936000CE
:10FFB000809360000895FB01DC016A2F9F01FF3FE1
:10FFC000C8F483E012D0309629F48FE78D938FEC3C
:10FFD0008C93119781E00D901D9007D03296A61357
:10FFE000FACFF90185E001D081E187BFE89507B636
:08FFF00000FCFDCF112408956F
:06FFFA00011BDCCFA63F55
:040000030000FF00FA
:00000001FF
